{
  "contractName": "Demand",
  "abi": [
    {
      "constant": true,
      "inputs": [
        {
          "name": "interfaceId",
          "type": "bytes4"
        }
      ],
      "name": "supportsInterface",
      "outputs": [
        {
          "name": "",
          "type": "bool"
        }
      ],
      "payable": false,
      "stateMutability": "view",
      "type": "function"
    },
    {
      "constant": true,
      "inputs": [],
      "name": "name",
      "outputs": [
        {
          "name": "",
          "type": "string"
        }
      ],
      "payable": false,
      "stateMutability": "view",
      "type": "function"
    },
    {
      "constant": true,
      "inputs": [
        {
          "name": "tokenId",
          "type": "uint256"
        }
      ],
      "name": "getApproved",
      "outputs": [
        {
          "name": "",
          "type": "address"
        }
      ],
      "payable": false,
      "stateMutability": "view",
      "type": "function"
    },
    {
      "constant": false,
      "inputs": [
        {
          "name": "to",
          "type": "address"
        },
        {
          "name": "tokenId",
          "type": "uint256"
        }
      ],
      "name": "approve",
      "outputs": [],
      "payable": false,
      "stateMutability": "nonpayable",
      "type": "function"
    },
    {
      "constant": true,
      "inputs": [],
      "name": "totalSupply",
      "outputs": [
        {
          "name": "",
          "type": "uint256"
        }
      ],
      "payable": false,
      "stateMutability": "view",
      "type": "function"
    },
    {
      "constant": false,
      "inputs": [
        {
          "name": "from",
          "type": "address"
        },
        {
          "name": "to",
          "type": "address"
        },
        {
          "name": "tokenId",
          "type": "uint256"
        }
      ],
      "name": "transferFrom",
      "outputs": [],
      "payable": false,
      "stateMutability": "nonpayable",
      "type": "function"
    },
    {
      "constant": true,
      "inputs": [
        {
          "name": "owner",
          "type": "address"
        },
        {
          "name": "index",
          "type": "uint256"
        }
      ],
      "name": "tokenOfOwnerByIndex",
      "outputs": [
        {
          "name": "",
          "type": "uint256"
        }
      ],
      "payable": false,
      "stateMutability": "view",
      "type": "function"
    },
    {
      "constant": false,
      "inputs": [
        {
          "name": "to",
          "type": "address"
        },
        {
          "name": "tokenId",
          "type": "uint256"
        }
      ],
      "name": "mint",
      "outputs": [
        {
          "name": "",
          "type": "bool"
        }
      ],
      "payable": false,
      "stateMutability": "nonpayable",
      "type": "function"
    },
    {
      "constant": false,
      "inputs": [
        {
          "name": "from",
          "type": "address"
        },
        {
          "name": "to",
          "type": "address"
        },
        {
          "name": "tokenId",
          "type": "uint256"
        }
      ],
      "name": "safeTransferFrom",
      "outputs": [],
      "payable": false,
      "stateMutability": "nonpayable",
      "type": "function"
    },
    {
      "constant": true,
      "inputs": [
        {
          "name": "index",
          "type": "uint256"
        }
      ],
      "name": "tokenByIndex",
      "outputs": [
        {
          "name": "",
          "type": "uint256"
        }
      ],
      "payable": false,
      "stateMutability": "view",
      "type": "function"
    },
    {
      "constant": true,
      "inputs": [
        {
          "name": "tokenId",
          "type": "uint256"
        }
      ],
      "name": "ownerOf",
      "outputs": [
        {
          "name": "",
          "type": "address"
        }
      ],
      "payable": false,
      "stateMutability": "view",
      "type": "function"
    },
    {
      "constant": true,
      "inputs": [
        {
          "name": "owner",
          "type": "address"
        }
      ],
      "name": "balanceOf",
      "outputs": [
        {
          "name": "",
          "type": "uint256"
        }
      ],
      "payable": false,
      "stateMutability": "view",
      "type": "function"
    },
    {
      "constant": false,
      "inputs": [],
      "name": "renounceOwnership",
      "outputs": [],
      "payable": false,
      "stateMutability": "nonpayable",
      "type": "function"
    },
    {
      "constant": true,
      "inputs": [
        {
          "name": "",
          "type": "uint256"
        }
      ],
      "name": "tasks",
      "outputs": [
        {
          "name": "taskId",
          "type": "uint256"
        }
      ],
      "payable": false,
      "stateMutability": "view",
      "type": "function"
    },
    {
      "constant": true,
      "inputs": [],
      "name": "owner",
      "outputs": [
        {
          "name": "",
          "type": "address"
        }
      ],
      "payable": false,
      "stateMutability": "view",
      "type": "function"
    },
    {
      "constant": true,
      "inputs": [],
      "name": "isOwner",
      "outputs": [
        {
          "name": "",
          "type": "bool"
        }
      ],
      "payable": false,
      "stateMutability": "view",
      "type": "function"
    },
    {
      "constant": true,
      "inputs": [],
      "name": "symbol",
      "outputs": [
        {
          "name": "",
          "type": "string"
        }
      ],
      "payable": false,
      "stateMutability": "view",
      "type": "function"
    },
    {
      "constant": false,
      "inputs": [
        {
          "name": "account",
          "type": "address"
        }
      ],
      "name": "addMinter",
      "outputs": [],
      "payable": false,
      "stateMutability": "nonpayable",
      "type": "function"
    },
    {
      "constant": false,
      "inputs": [],
      "name": "renounceMinter",
      "outputs": [],
      "payable": false,
      "stateMutability": "nonpayable",
      "type": "function"
    },
    {
      "constant": true,
      "inputs": [
        {
          "name": "",
          "type": "uint256"
        }
      ],
      "name": "positions",
      "outputs": [
        {
          "name": "positionId",
          "type": "uint256"
        },
        {
          "name": "positionNumber",
          "type": "string"
        },
        {
          "name": "positionName",
          "type": "string"
        },
        {
          "name": "lowRank",
          "type": "uint8"
        },
        {
          "name": "highRank",
          "type": "uint8"
        },
        {
          "name": "trade",
          "type": "uint8"
        },
        {
          "name": "environment",
          "type": "uint8"
        },
        {
          "name": "taskList",
          "type": "uint256"
        },
        {
          "name": "currentSoldier",
          "type": "uint256"
        },
        {
          "name": "owningOrganization",
          "type": "address"
        },
        {
          "name": "status",
          "type": "uint8"
        },
        {
          "name": "component",
          "type": "uint8"
        }
      ],
      "payable": false,
      "stateMutability": "view",
      "type": "function"
    },
    {
      "constant": false,
      "inputs": [
        {
          "name": "to",
          "type": "address"
        },
        {
          "name": "approved",
          "type": "bool"
        }
      ],
      "name": "setApprovalForAll",
      "outputs": [],
      "payable": false,
      "stateMutability": "nonpayable",
      "type": "function"
    },
    {
      "constant": true,
      "inputs": [
        {
          "name": "account",
          "type": "address"
        }
      ],
      "name": "isMinter",
      "outputs": [
        {
          "name": "",
          "type": "bool"
        }
      ],
      "payable": false,
      "stateMutability": "view",
      "type": "function"
    },
    {
      "constant": false,
      "inputs": [
        {
          "name": "from",
          "type": "address"
        },
        {
          "name": "to",
          "type": "address"
        },
        {
          "name": "tokenId",
          "type": "uint256"
        },
        {
          "name": "_data",
          "type": "bytes"
        }
      ],
      "name": "safeTransferFrom",
      "outputs": [],
      "payable": false,
      "stateMutability": "nonpayable",
      "type": "function"
    },
    {
      "constant": true,
      "inputs": [
        {
          "name": "",
          "type": "uint256"
        }
      ],
      "name": "soldiers",
      "outputs": [
        {
          "name": "serviceNumber",
          "type": "string"
        },
        {
          "name": "rank",
          "type": "uint8"
        },
        {
          "name": "trade",
          "type": "uint8"
        },
        {
          "name": "environment",
          "type": "uint8"
        },
        {
          "name": "component",
          "type": "uint8"
        },
        {
          "name": "soldierAddress",
          "type": "address"
        }
      ],
      "payable": false,
      "stateMutability": "view",
      "type": "function"
    },
    {
      "constant": true,
      "inputs": [
        {
          "name": "tokenId",
          "type": "uint256"
        }
      ],
      "name": "tokenURI",
      "outputs": [
        {
          "name": "",
          "type": "string"
        }
      ],
      "payable": false,
      "stateMutability": "view",
      "type": "function"
    },
    {
      "constant": true,
      "inputs": [
        {
          "name": "",
          "type": "uint256"
        }
      ],
      "name": "qualifications",
      "outputs": [
        {
          "name": "qualificationId",
          "type": "uint256"
        },
        {
          "name": "competencyCode",
          "type": "string"
        },
        {
          "name": "qualificationTitle",
          "type": "string"
        }
      ],
      "payable": false,
      "stateMutability": "view",
      "type": "function"
    },
    {
      "constant": true,
      "inputs": [
        {
          "name": "owner",
          "type": "address"
        },
        {
          "name": "operator",
          "type": "address"
        }
      ],
      "name": "isApprovedForAll",
      "outputs": [
        {
          "name": "",
          "type": "bool"
        }
      ],
      "payable": false,
      "stateMutability": "view",
      "type": "function"
    },
    {
      "constant": false,
      "inputs": [
        {
          "name": "newOwner",
          "type": "address"
        }
      ],
      "name": "transferOwnership",
      "outputs": [],
      "payable": false,
      "stateMutability": "nonpayable",
      "type": "function"
    },
    {
      "inputs": [
        {
          "name": "_identifier",
          "type": "string"
        },
        {
          "name": "_symbol",
          "type": "string"
        }
      ],
      "payable": false,
      "stateMutability": "nonpayable",
      "type": "constructor"
    },
    {
      "anonymous": false,
      "inputs": [
        {
          "indexed": true,
          "name": "positionId",
          "type": "uint256"
        },
        {
          "indexed": false,
          "name": "positionNumber",
          "type": "string"
        },
        {
          "indexed": false,
          "name": "positionName",
          "type": "string"
        },
        {
          "indexed": false,
          "name": "lowRank",
          "type": "uint8"
        },
        {
          "indexed": false,
          "name": "highRank",
          "type": "uint8"
        },
        {
          "indexed": false,
          "name": "trade",
          "type": "uint8"
        },
        {
          "indexed": false,
          "name": "environment",
          "type": "uint8"
        },
        {
          "indexed": false,
          "name": "taskList",
          "type": "uint256"
        },
        {
          "indexed": true,
          "name": "currentSoldier",
          "type": "uint256"
        },
        {
          "indexed": true,
          "name": "owningOrganization",
          "type": "address"
        },
        {
          "indexed": false,
          "name": "status",
          "type": "uint8"
        },
        {
          "indexed": false,
          "name": "component",
          "type": "uint8"
        }
      ],
      "name": "PositionCreated",
      "type": "event"
    },
    {
      "anonymous": false,
      "inputs": [
        {
          "indexed": true,
          "name": "previousOwner",
          "type": "address"
        },
        {
          "indexed": true,
          "name": "newOwner",
          "type": "address"
        }
      ],
      "name": "OwnershipTransferred",
      "type": "event"
    },
    {
      "anonymous": false,
      "inputs": [
        {
          "indexed": true,
          "name": "account",
          "type": "address"
        }
      ],
      "name": "MinterAdded",
      "type": "event"
    },
    {
      "anonymous": false,
      "inputs": [
        {
          "indexed": true,
          "name": "account",
          "type": "address"
        }
      ],
      "name": "MinterRemoved",
      "type": "event"
    },
    {
      "anonymous": false,
      "inputs": [
        {
          "indexed": true,
          "name": "from",
          "type": "address"
        },
        {
          "indexed": true,
          "name": "to",
          "type": "address"
        },
        {
          "indexed": true,
          "name": "tokenId",
          "type": "uint256"
        }
      ],
      "name": "Transfer",
      "type": "event"
    },
    {
      "anonymous": false,
      "inputs": [
        {
          "indexed": true,
          "name": "owner",
          "type": "address"
        },
        {
          "indexed": true,
          "name": "approved",
          "type": "address"
        },
        {
          "indexed": true,
          "name": "tokenId",
          "type": "uint256"
        }
      ],
      "name": "Approval",
      "type": "event"
    },
    {
      "anonymous": false,
      "inputs": [
        {
          "indexed": true,
          "name": "owner",
          "type": "address"
        },
        {
          "indexed": true,
          "name": "operator",
          "type": "address"
        },
        {
          "indexed": false,
          "name": "approved",
          "type": "bool"
        }
      ],
      "name": "ApprovalForAll",
      "type": "event"
    },
    {
      "constant": false,
      "inputs": [],
      "name": "terminateDemand",
      "outputs": [],
      "payable": false,
      "stateMutability": "nonpayable",
      "type": "function"
    },
    {
      "constant": false,
      "inputs": [
        {
          "name": "administrators",
          "type": "address[]"
        }
      ],
      "name": "assignAdministratorRole",
      "outputs": [],
      "payable": false,
      "stateMutability": "nonpayable",
      "type": "function"
    },
    {
      "constant": false,
      "inputs": [
        {
          "name": "establishmentManagers",
          "type": "address[]"
        }
      ],
      "name": "assignEstablishmentManagerRole",
      "outputs": [],
      "payable": false,
      "stateMutability": "nonpayable",
      "type": "function"
    },
    {
      "constant": false,
      "inputs": [
        {
          "name": "careerManagers",
          "type": "address[]"
        }
      ],
      "name": "assignCareerManagerRole",
      "outputs": [],
      "payable": false,
      "stateMutability": "nonpayable",
      "type": "function"
    },
    {
      "constant": false,
      "inputs": [
        {
          "name": "recruiters",
          "type": "address[]"
        }
      ],
      "name": "assignRecruiterRole",
      "outputs": [],
      "payable": false,
      "stateMutability": "nonpayable",
      "type": "function"
    },
    {
      "constant": false,
      "inputs": [
        {
          "name": "trainingEstablishments",
          "type": "address[]"
        }
      ],
      "name": "assignTrainingEstablishmentRole",
      "outputs": [],
      "payable": false,
      "stateMutability": "nonpayable",
      "type": "function"
    },
    {
      "constant": false,
      "inputs": [
        {
          "name": "soldiersAddress",
          "type": "address[]"
        }
      ],
      "name": "assignSoldierRole",
      "outputs": [],
      "payable": false,
      "stateMutability": "nonpayable",
      "type": "function"
    },
    {
      "constant": false,
      "inputs": [
        {
          "name": "unitPositionManagers",
          "type": "address[]"
        }
      ],
      "name": "assignUnitPositionManagerRole",
      "outputs": [],
      "payable": false,
      "stateMutability": "nonpayable",
      "type": "function"
    },
    {
      "constant": false,
      "inputs": [
        {
          "name": "_positionNumber",
          "type": "string"
        },
        {
          "name": "_positionName",
          "type": "string"
        },
        {
          "name": "_lowRank",
          "type": "uint8"
        },
        {
          "name": "_highRank",
          "type": "uint8"
        },
        {
          "name": "_trade",
          "type": "uint8"
        },
        {
          "name": "_environment",
          "type": "uint8"
        },
        {
          "name": "_currentSoldier",
          "type": "uint256"
        },
        {
          "name": "_taskList",
          "type": "uint256"
        },
        {
          "name": "_status",
          "type": "uint8"
        },
        {
          "name": "_owningOrganization",
          "type": "address"
        },
        {
          "name": "_component",
          "type": "uint8"
        }
      ],
      "name": "createPosition",
      "outputs": [],
      "payable": false,
      "stateMutability": "nonpayable",
      "type": "function"
    },
    {
      "constant": true,
      "inputs": [
        {
          "name": "_positionId",
          "type": "uint256"
        }
      ],
      "name": "getPositionDetails",
      "outputs": [
        {
          "name": "positionId",
          "type": "uint256"
        },
        {
          "name": "positionNumber",
          "type": "string"
        },
        {
          "name": "positionName",
          "type": "string"
        },
        {
          "name": "lowRank",
          "type": "uint8"
        },
        {
          "name": "highRank",
          "type": "uint8"
        },
        {
          "name": "trade",
          "type": "uint8"
        },
        {
          "name": "environment",
          "type": "uint8"
        },
        {
          "name": "taskList",
          "type": "uint256"
        },
        {
          "name": "currentSoldier",
          "type": "uint256"
        },
        {
          "name": "owningOrganization",
          "type": "address"
        },
        {
          "name": "status",
          "type": "uint8"
        },
        {
          "name": "component",
          "type": "uint8"
        }
      ],
      "payable": false,
      "stateMutability": "view",
      "type": "function"
    }
  ],
  "bytecode": "0x60806040523480156200001157600080fd5b50604051620056ce380380620056ce833981018060405260408110156200003757600080fd5b8101908080516401000000008111156200005057600080fd5b828101905060208101848111156200006757600080fd5b81518560018202830111640100000000821117156200008557600080fd5b50509291906020018051640100000000811115620000a257600080fd5b82810190506020810184811115620000b957600080fd5b8151856001820283011164010000000082111715620000d757600080fd5b505092919050505081818181620000fb6301ffc9a760e01b620002d360201b60201c565b620001136380ac58cd60e01b620002d360201b60201c565b6200012b63780e9d6360e01b620002d360201b60201c565b81600990805190602001906200014392919062000659565b5080600a90805190602001906200015c92919062000659565b5062000175635b5e139f60e01b620002d360201b60201c565b505050506200018a33620003dc60201b60201c565b33600d60006101000a81548173ffffffffffffffffffffffffffffffffffffffff021916908373ffffffffffffffffffffffffffffffffffffffff160217905550600d60009054906101000a900473ffffffffffffffffffffffffffffffffffffffff1673ffffffffffffffffffffffffffffffffffffffff16600073ffffffffffffffffffffffffffffffffffffffff167f8be0079c531659141344cd1fd0a4f28419497f9722a3daafe3b4186f6b6457e060405160405180910390a3620002586200043d60201b60201c565b620002cb576040517f08c379a00000000000000000000000000000000000000000000000000000000081526004018080602001828103825260208152602001807f4f776e61626c653a2063616c6c6572206973206e6f7420746865206f776e657281525060200191505060405180910390fd5b505062000708565b63ffffffff60e01b817bffffffffffffffffffffffffffffffffffffffffffffffffffffffff1916141562000370576040517f08c379a000000000000000000000000000000000000000000000000000000000815260040180806020018281038252601c8152602001807f4552433136353a20696e76616c696420696e746572666163652069640000000081525060200191505060405180910390fd5b6001600080837bffffffffffffffffffffffffffffffffffffffffffffffffffffffff19167bffffffffffffffffffffffffffffffffffffffffffffffffffffffff1916815260200190815260200160002060006101000a81548160ff02191690831515021790555050565b620003f781600c6200049560201b62003b2c1790919060201c565b8073ffffffffffffffffffffffffffffffffffffffff167f6ae172837ea30b801fbfcdd4108aa1d5bf8ff775444fd70256b44e6bf3dfc3f660405160405180910390a250565b6000600d60009054906101000a900473ffffffffffffffffffffffffffffffffffffffff1673ffffffffffffffffffffffffffffffffffffffff163373ffffffffffffffffffffffffffffffffffffffff1614905090565b620004a782826200057960201b60201c565b156200051b576040517f08c379a000000000000000000000000000000000000000000000000000000000815260040180806020018281038252601f8152602001807f526f6c65733a206163636f756e7420616c72656164792068617320726f6c650081525060200191505060405180910390fd5b60018260000160008373ffffffffffffffffffffffffffffffffffffffff1673ffffffffffffffffffffffffffffffffffffffff16815260200190815260200160002060006101000a81548160ff0219169083151502179055505050565b60008073ffffffffffffffffffffffffffffffffffffffff168273ffffffffffffffffffffffffffffffffffffffff16141562000602576040517f08c379a0000000000000000000000000000000000000000000000000000000008152600401808060200182810382526022815260200180620056ac6022913960400191505060405180910390fd5b8260000160008373ffffffffffffffffffffffffffffffffffffffff1673ffffffffffffffffffffffffffffffffffffffff16815260200190815260200160002060009054906101000a900460ff16905092915050565b828054600181600116156101000203166002900490600052602060002090601f016020900481019282601f106200069c57805160ff1916838001178555620006cd565b82800160010185558215620006cd579182015b82811115620006cc578251825591602001919060010190620006af565b5b509050620006dc9190620006e0565b5090565b6200070591905b8082111562000701576000816000905550600101620006e7565b5090565b90565b614f9480620007186000396000f3fe608060405234801561001057600080fd5b50600436106102325760003560e01c80638da5cb5b11610130578063b88d4fde116100b8578063d494446b1161007c578063d494446b146114dd578063e8cb3e5014611595578063e985e9c5146116af578063f2fde38b1461172b578063fbb641a51461176f57610232565b8063b88d4fde14610f76578063b909b68e1461107b578063c36bcd94146111a9578063c87b56dd1461137e578063ca7076f81461142557610232565b806398650275116100ff5780639865027514610b0e57806399fbab8814610b185780639ecceb5e14610cf1578063a22cb46514610eca578063aa271e1a14610f1a57610232565b80638da5cb5b146109db5780638f32d59b14610a2557806395d89b4114610a47578063983b2d5614610aca57610232565b806342842e0e116101be578063701e3a1e11610182578063701e3a1e146107c757806370a082311461087f578063715018a6146108d757806387ae7fe4146108e15780638d9776721461099957610232565b806342842e0e146105e75780634f6ccce7146106555780636352211e146106975780636b27a0c7146107055780636d19e99b1461070f57610232565b8063149fca6111610205578063149fca61146103db57806318160ddd1461049357806323b872dd146104b15780632f745c591461051f57806340c10f191461058157610232565b806301ffc9a71461023757806306fdde031461029c578063081812fc1461031f578063095ea7b31461038d575b600080fd5b6102826004803603602081101561024d57600080fd5b8101908080357bffffffffffffffffffffffffffffffffffffffffffffffffffffffff19169060200190929190505050611827565b604051808215151515815260200191505060405180910390f35b6102a461188e565b6040518080602001828103825283818151815260200191508051906020019080838360005b838110156102e45780820151818401526020810190506102c9565b50505050905090810190601f1680156103115780820380516001836020036101000a031916815260200191505b509250505060405180910390f35b61034b6004803603602081101561033557600080fd5b8101908080359060200190929190505050611930565b604051808273ffffffffffffffffffffffffffffffffffffffff1673ffffffffffffffffffffffffffffffffffffffff16815260200191505060405180910390f35b6103d9600480360360408110156103a357600080fd5b81019080803573ffffffffffffffffffffffffffffffffffffffff169060200190929190803590602001909291905050506119cb565b005b610491600480360360208110156103f157600080fd5b810190808035906020019064010000000081111561040e57600080fd5b82018360208201111561042057600080fd5b8035906020019184602083028401116401000000008311171561044257600080fd5b919080806020026020016040519081016040528093929190818152602001838360200280828437600081840152601f19601f820116905080830192505050505050509192919290505050611ba4565b005b61049b611c6f565b6040518082815260200191505060405180910390f35b61051d600480360360608110156104c757600080fd5b81019080803573ffffffffffffffffffffffffffffffffffffffff169060200190929190803573ffffffffffffffffffffffffffffffffffffffff16906020019092919080359060200190929190505050611c7c565b005b61056b6004803603604081101561053557600080fd5b81019080803573ffffffffffffffffffffffffffffffffffffffff16906020019092919080359060200190929190505050611ceb565b6040518082815260200191505060405180910390f35b6105cd6004803603604081101561059757600080fd5b81019080803573ffffffffffffffffffffffffffffffffffffffff16906020019092919080359060200190929190505050611daa565b604051808215151515815260200191505060405180910390f35b610653600480360360608110156105fd57600080fd5b81019080803573ffffffffffffffffffffffffffffffffffffffff169060200190929190803573ffffffffffffffffffffffffffffffffffffffff16906020019092919080359060200190929190505050611e1e565b005b6106816004803603602081101561066b57600080fd5b8101908080359060200190929190505050611e3e565b6040518082815260200191505060405180910390f35b6106c3600480360360208110156106ad57600080fd5b8101908080359060200190929190505050611ebe565b604051808273ffffffffffffffffffffffffffffffffffffffff1673ffffffffffffffffffffffffffffffffffffffff16815260200191505060405180910390f35b61070d611f86565b005b6107c56004803603602081101561072557600080fd5b810190808035906020019064010000000081111561074257600080fd5b82018360208201111561075457600080fd5b8035906020019184602083028401116401000000008311171561077657600080fd5b919080806020026020016040519081016040528093929190818152602001838360200280828437600081840152601f19601f820116905080830192505050505050509192919290505050612019565b005b61087d600480360360208110156107dd57600080fd5b81019080803590602001906401000000008111156107fa57600080fd5b82018360208201111561080c57600080fd5b8035906020019184602083028401116401000000008311171561082e57600080fd5b919080806020026020016040519081016040528093929190818152602001838360200280828437600081840152601f19601f8201169050808301925050505050505091929192905050506120e2565b005b6108c16004803603602081101561089557600080fd5b81019080803573ffffffffffffffffffffffffffffffffffffffff1690602001909291905050506121ab565b6040518082815260200191505060405180910390f35b6108df612280565b005b610997600480360360208110156108f757600080fd5b810190808035906020019064010000000081111561091457600080fd5b82018360208201111561092657600080fd5b8035906020019184602083028401116401000000008311171561094857600080fd5b919080806020026020016040519081016040528093929190818152602001838360200280828437600081840152601f19601f8201169050808301925050505050505091929192905050506123bb565b005b6109c5600480360360208110156109af57600080fd5b8101908080359060200190929190505050612486565b6040518082815260200191505060405180910390f35b6109e36124ad565b604051808273ffffffffffffffffffffffffffffffffffffffff1673ffffffffffffffffffffffffffffffffffffffff16815260200191505060405180910390f35b610a2d6124d7565b604051808215151515815260200191505060405180910390f35b610a4f61252f565b6040518080602001828103825283818151815260200191508051906020019080838360005b83811015610a8f578082015181840152602081019050610a74565b50505050905090810190601f168015610abc5780820380516001836020036101000a031916815260200191505b509250505060405180910390f35b610b0c60048036036020811015610ae057600080fd5b81019080803573ffffffffffffffffffffffffffffffffffffffff1690602001909291905050506125d1565b005b610b1661263b565b005b610b4460048036036020811015610b2e57600080fd5b8101908080359060200190929190505050612646565b604051808d815260200180602001806020018c6026811115610b6257fe5b60ff1681526020018b6026811115610b7657fe5b60ff1681526020018a6074811115610b8a57fe5b60ff168152602001896003811115610b9e57fe5b60ff1681526020018881526020018781526020018673ffffffffffffffffffffffffffffffffffffffff1673ffffffffffffffffffffffffffffffffffffffff168152602001856002811115610bf057fe5b60ff168152602001846002811115610c0457fe5b60ff16815260200183810383528e818151815260200191508051906020019080838360005b83811015610c44578082015181840152602081019050610c29565b50505050905090810190601f168015610c715780820380516001836020036101000a031916815260200191505b5083810382528d818151815260200191508051906020019080838360005b83811015610caa578082015181840152602081019050610c8f565b50505050905090810190601f168015610cd75780820380516001836020036101000a031916815260200191505b509e50505050505050505050505050505060405180910390f35b610d1d60048036036020811015610d0757600080fd5b8101908080359060200190929190505050612851565b604051808d815260200180602001806020018c6026811115610d3b57fe5b60ff1681526020018b6026811115610d4f57fe5b60ff1681526020018a6074811115610d6357fe5b60ff168152602001896003811115610d7757fe5b60ff1681526020018881526020018781526020018673ffffffffffffffffffffffffffffffffffffffff1673ffffffffffffffffffffffffffffffffffffffff168152602001856002811115610dc957fe5b60ff168152602001846002811115610ddd57fe5b60ff16815260200183810383528e818151815260200191508051906020019080838360005b83811015610e1d578082015181840152602081019050610e02565b50505050905090810190601f168015610e4a5780820380516001836020036101000a031916815260200191505b5083810382528d818151815260200191508051906020019080838360005b83811015610e83578082015181840152602081019050610e68565b50505050905090810190601f168015610eb05780820380516001836020036101000a031916815260200191505b509e50505050505050505050505050505060405180910390f35b610f1860048036036040811015610ee057600080fd5b81019080803573ffffffffffffffffffffffffffffffffffffffff169060200190929190803515159060200190929190505050612bc3565b005b610f5c60048036036020811015610f3057600080fd5b81019080803573ffffffffffffffffffffffffffffffffffffffff169060200190929190505050612d66565b604051808215151515815260200191505060405180910390f35b61107960048036036080811015610f8c57600080fd5b81019080803573ffffffffffffffffffffffffffffffffffffffff169060200190929190803573ffffffffffffffffffffffffffffffffffffffff1690602001909291908035906020019092919080359060200190640100000000811115610ff357600080fd5b82018360208201111561100557600080fd5b8035906020019184600183028401116401000000008311171561102757600080fd5b91908080601f016020809104026020016040519081016040528093929190818152602001838380828437600081840152601f19601f820116905080830192505050505050509192919290505050612d83565b005b6110a76004803603602081101561109157600080fd5b8101908080359060200190929190505050612df5565b60405180806020018760268111156110bb57fe5b60ff1681526020018660748111156110cf57fe5b60ff1681526020018560038111156110e357fe5b60ff1681526020018460028111156110f757fe5b60ff1681526020018373ffffffffffffffffffffffffffffffffffffffff1673ffffffffffffffffffffffffffffffffffffffff168152602001828103825288818151815260200191508051906020019080838360005b8381101561116957808201518184015260208101905061114e565b50505050905090810190601f1680156111965780820380516001836020036101000a031916815260200191505b5097505050505050505060405180910390f35b61137c60048036036101608110156111c057600080fd5b81019080803590602001906401000000008111156111dd57600080fd5b8201836020820111156111ef57600080fd5b8035906020019184600183028401116401000000008311171561121157600080fd5b91908080601f016020809104026020016040519081016040528093929190818152602001838380828437600081840152601f19601f8201169050808301925050505050505091929192908035906020019064010000000081111561127457600080fd5b82018360208201111561128657600080fd5b803590602001918460018302840111640100000000831117156112a857600080fd5b91908080601f016020809104026020016040519081016040528093929190818152602001838380828437600081840152601f19601f820116905080830192505050505050509192919290803560ff169060200190929190803560ff169060200190929190803560ff169060200190929190803560ff1690602001909291908035906020019092919080359060200190929190803560ff169060200190929190803573ffffffffffffffffffffffffffffffffffffffff169060200190929190803560ff169060200190929190505050612f2a565b005b6113aa6004803603602081101561139457600080fd5b81019080803590602001909291905050506133f1565b6040518080602001828103825283818151815260200191508051906020019080838360005b838110156113ea5780820151818401526020810190506113cf565b50505050905090810190601f1680156114175780820380516001836020036101000a031916815260200191505b509250505060405180910390f35b6114db6004803603602081101561143b57600080fd5b810190808035906020019064010000000081111561145857600080fd5b82018360208201111561146a57600080fd5b8035906020019184602083028401116401000000008311171561148c57600080fd5b919080806020026020016040519081016040528093929190818152602001838360200280828437600081840152601f19601f820116905080830192505050505050509192919290505050613504565b005b611593600480360360208110156114f357600080fd5b810190808035906020019064010000000081111561151057600080fd5b82018360208201111561152257600080fd5b8035906020019184602083028401116401000000008311171561154457600080fd5b919080806020026020016040519081016040528093929190818152602001838360200280828437600081840152601f19601f8201169050808301925050505050505091929192905050506135cf565b005b6115c1600480360360208110156115ab57600080fd5b810190808035906020019092919050505061369a565b604051808481526020018060200180602001838103835285818151815260200191508051906020019080838360005b8381101561160b5780820151818401526020810190506115f0565b50505050905090810190601f1680156116385780820380516001836020036101000a031916815260200191505b50838103825284818151815260200191508051906020019080838360005b83811015611671578082015181840152602081019050611656565b50505050905090810190601f16801561169e5780820380516001836020036101000a031916815260200191505b509550505050505060405180910390f35b611711600480360360408110156116c557600080fd5b81019080803573ffffffffffffffffffffffffffffffffffffffff169060200190929190803573ffffffffffffffffffffffffffffffffffffffff169060200190929190505050613801565b604051808215151515815260200191505060405180910390f35b61176d6004803603602081101561174157600080fd5b81019080803573ffffffffffffffffffffffffffffffffffffffff169060200190929190505050613895565b005b6118256004803603602081101561178557600080fd5b81019080803590602001906401000000008111156117a257600080fd5b8201836020820111156117b457600080fd5b803590602001918460208302840111640100000000831117156117d657600080fd5b919080806020026020016040519081016040528093929190818152602001838360200280828437600081840152601f19601f82011690508083019250505050505050919291929050505061391b565b005b6000806000837bffffffffffffffffffffffffffffffffffffffffffffffffffffffff19167bffffffffffffffffffffffffffffffffffffffffffffffffffffffff1916815260200190815260200160002060009054906101000a900460ff169050919050565b606060098054600181600116156101000203166002900480601f0160208091040260200160405190810160405280929190818152602001828054600181600116156101000203166002900480156119265780601f106118fb57610100808354040283529160200191611926565b820191906000526020600020905b81548152906001019060200180831161190957829003601f168201915b5050505050905090565b600061193b826139dc565b611990576040517f08c379a000000000000000000000000000000000000000000000000000000000815260040180806020018281038252602c815260200180614e18602c913960400191505060405180910390fd5b6002600083815260200190815260200160002060009054906101000a900473ffffffffffffffffffffffffffffffffffffffff169050919050565b60006119d682611ebe565b90508073ffffffffffffffffffffffffffffffffffffffff168373ffffffffffffffffffffffffffffffffffffffff161415611a5d576040517f08c379a0000000000000000000000000000000000000000000000000000000008152600401808060200182810382526021815260200180614ebe6021913960400191505060405180910390fd5b8073ffffffffffffffffffffffffffffffffffffffff163373ffffffffffffffffffffffffffffffffffffffff161480611a9d5750611a9c8133613801565b5b611af2576040517f08c379a0000000000000000000000000000000000000000000000000000000008152600401808060200182810382526038815260200180614d3c6038913960400191505060405180910390fd5b826002600084815260200190815260200160002060006101000a81548173ffffffffffffffffffffffffffffffffffffffff021916908373ffffffffffffffffffffffffffffffffffffffff160217905550818373ffffffffffffffffffffffffffffffffffffffff168273ffffffffffffffffffffffffffffffffffffffff167f8c5be1e5ebec7d5bd14f71427d1e84f3dd0314c0f7b2291e5b200ac8c7c3b92560405160405180910390a4505050565b611bb833600e613a4e90919063ffffffff16565b611c2a576040517f08c379a00000000000000000000000000000000000000000000000000000000081526004018080602001828103825260208152602001807f444f45535f4e4f545f484156455f41444d494e4953545241544f525f524f4c4581525060200191505060405180910390fd5b60008090505b8151811015611c6b57611c60828281518110611c4857fe5b60200260200101516010613b2c90919063ffffffff16565b806001019050611c30565b5050565b6000600780549050905090565b611c863382613c07565b611cdb576040517f08c379a0000000000000000000000000000000000000000000000000000000008152600401808060200182810382526031815260200180614edf6031913960400191505060405180910390fd5b611ce6838383613cfb565b505050565b6000611cf6836121ab565b8210611d4d576040517f08c379a000000000000000000000000000000000000000000000000000000000815260040180806020018281038252602b815260200180614c69602b913960400191505060405180910390fd5b600560008473ffffffffffffffffffffffffffffffffffffffff1673ffffffffffffffffffffffffffffffffffffffff1681526020019081526020016000208281548110611d9757fe5b9060005260206000200154905092915050565b6000611db533612d66565b611e0a576040517f08c379a0000000000000000000000000000000000000000000000000000000008152600401808060200182810382526030815260200180614dc76030913960400191505060405180910390fd5b611e148383613d1f565b6001905092915050565b611e3983838360405180602001604052806000815250612d83565b505050565b6000611e48611c6f565b8210611e9f576040517f08c379a000000000000000000000000000000000000000000000000000000000815260040180806020018281038252602c815260200180614f10602c913960400191505060405180910390fd5b60078281548110611eac57fe5b90600052602060002001549050919050565b6000806001600084815260200190815260200160002060009054906101000a900473ffffffffffffffffffffffffffffffffffffffff169050600073ffffffffffffffffffffffffffffffffffffffff168173ffffffffffffffffffffffffffffffffffffffff161415611f7d576040517f08c379a0000000000000000000000000000000000000000000000000000000008152600401808060200182810382526029815260200180614d9e6029913960400191505060405180910390fd5b80915050919050565b611f8e6124d7565b612000576040517f08c379a00000000000000000000000000000000000000000000000000000000081526004018080602001828103825260208152602001807f4f776e61626c653a2063616c6c6572206973206e6f7420746865206f776e657281525060200191505060405180910390fd5b3373ffffffffffffffffffffffffffffffffffffffff16ff5b61202d33600e613a4e90919063ffffffff16565b80612048575061204733600f613a4e90919063ffffffff16565b5b61209d576040517f08c379a0000000000000000000000000000000000000000000000000000000008152600401808060200182810382526039815260200180614c306039913960400191505060405180910390fd5b60008090505b81518110156120de576120d38282815181106120bb57fe5b60200260200101516011613b2c90919063ffffffff16565b8060010190506120a3565b5050565b6120f633600e613a4e90919063ffffffff16565b806121115750612110336012613a4e90919063ffffffff16565b5b612166576040517f08c379a000000000000000000000000000000000000000000000000000000000815260040180806020018281038252602d815260200180614f3c602d913960400191505060405180910390fd5b60008090505b81518110156121a75761219c82828151811061218457fe5b60200260200101516013613b2c90919063ffffffff16565b80600101905061216c565b5050565b60008073ffffffffffffffffffffffffffffffffffffffff168273ffffffffffffffffffffffffffffffffffffffff161415612232576040517f08c379a000000000000000000000000000000000000000000000000000000000815260040180806020018281038252602a815260200180614d74602a913960400191505060405180910390fd5b612279600360008473ffffffffffffffffffffffffffffffffffffffff1673ffffffffffffffffffffffffffffffffffffffff168152602001908152602001600020613d40565b9050919050565b6122886124d7565b6122fa576040517f08c379a00000000000000000000000000000000000000000000000000000000081526004018080602001828103825260208152602001807f4f776e61626c653a2063616c6c6572206973206e6f7420746865206f776e657281525060200191505060405180910390fd5b600073ffffffffffffffffffffffffffffffffffffffff16600d60009054906101000a900473ffffffffffffffffffffffffffffffffffffffff1673ffffffffffffffffffffffffffffffffffffffff167f8be0079c531659141344cd1fd0a4f28419497f9722a3daafe3b4186f6b6457e060405160405180910390a36000600d60006101000a81548173ffffffffffffffffffffffffffffffffffffffff021916908373ffffffffffffffffffffffffffffffffffffffff160217905550565b6123cf33600e613a4e90919063ffffffff16565b612441576040517f08c379a00000000000000000000000000000000000000000000000000000000081526004018080602001828103825260208152602001807f444f45535f4e4f545f484156455f41444d494e4953545241544f525f524f4c4581525060200191505060405180910390fd5b60008090505b81518110156124825761247782828151811061245f57fe5b60200260200101516012613b2c90919063ffffffff16565b806001019050612447565b5050565b6017818154811061249357fe5b906000526020600020016000915090508060000154905081565b6000600d60009054906101000a900473ffffffffffffffffffffffffffffffffffffffff16905090565b6000600d60009054906101000a900473ffffffffffffffffffffffffffffffffffffffff1673ffffffffffffffffffffffffffffffffffffffff163373ffffffffffffffffffffffffffffffffffffffff1614905090565b6060600a8054600181600116156101000203166002900480601f0160208091040260200160405190810160405280929190818152602001828054600181600116156101000203166002900480156125c75780601f1061259c576101008083540402835291602001916125c7565b820191906000526020600020905b8154815290600101906020018083116125aa57829003601f168201915b5050505050905090565b6125da33612d66565b61262f576040517f08c379a0000000000000000000000000000000000000000000000000000000008152600401808060200182810382526030815260200180614dc76030913960400191505060405180910390fd5b61263881613d4e565b50565b61264433613da8565b565b6015818154811061265357fe5b9060005260206000209060070201600091509050806000015490806001018054600181600116156101000203166002900480601f0160208091040260200160405190810160405280929190818152602001828054600181600116156101000203166002900480156127055780601f106126da57610100808354040283529160200191612705565b820191906000526020600020905b8154815290600101906020018083116126e857829003601f168201915b505050505090806002018054600181600116156101000203166002900480601f0160208091040260200160405190810160405280929190818152602001828054600181600116156101000203166002900480156127a35780601f10612778576101008083540402835291602001916127a3565b820191906000526020600020905b81548152906001019060200180831161278657829003601f168201915b5050505050908060030160009054906101000a900460ff16908060030160019054906101000a900460ff16908060030160029054906101000a900460ff16908060030160039054906101000a900460ff16908060040154908060050154908060060160009054906101000a900473ffffffffffffffffffffffffffffffffffffffff16908060060160149054906101000a900460ff16908060060160159054906101000a900460ff1690508c565b6000606080600080600080600080600080600061286c614aa5565b60158e8154811061287957fe5b90600052602060002090600702016040518061018001604052908160008201548152602001600182018054600181600116156101000203166002900480601f0160208091040260200160405190810160405280929190818152602001828054600181600116156101000203166002900480156129365780601f1061290b57610100808354040283529160200191612936565b820191906000526020600020905b81548152906001019060200180831161291957829003601f168201915b50505050508152602001600282018054600181600116156101000203166002900480601f0160208091040260200160405190810160405280929190818152602001828054600181600116156101000203166002900480156129d85780601f106129ad576101008083540402835291602001916129d8565b820191906000526020600020905b8154815290600101906020018083116129bb57829003601f168201915b505050505081526020016003820160009054906101000a900460ff1660268111156129ff57fe5b6026811115612a0a57fe5b81526020016003820160019054906101000a900460ff166026811115612a2c57fe5b6026811115612a3757fe5b81526020016003820160029054906101000a900460ff166074811115612a5957fe5b6074811115612a6457fe5b81526020016003820160039054906101000a900460ff166003811115612a8657fe5b6003811115612a9157fe5b815260200160048201548152602001600582015481526020016006820160009054906101000a900473ffffffffffffffffffffffffffffffffffffffff1673ffffffffffffffffffffffffffffffffffffffff1673ffffffffffffffffffffffffffffffffffffffff1681526020016006820160149054906101000a900460ff166002811115612b1d57fe5b6002811115612b2857fe5b81526020016006820160159054906101000a900460ff166002811115612b4a57fe5b6002811115612b5557fe5b81525050905080600001519c5080602001519b5080604001519a5080606001519950806080015198508060a0015197508060c0015196508060e00151955080610100015194508061012001519350806101400151925080610160015191505091939597999b5091939597999b565b3373ffffffffffffffffffffffffffffffffffffffff168273ffffffffffffffffffffffffffffffffffffffff161415612c65576040517f08c379a00000000000000000000000000000000000000000000000000000000081526004018080602001828103825260198152602001807f4552433732313a20617070726f766520746f2063616c6c65720000000000000081525060200191505060405180910390fd5b80600460003373ffffffffffffffffffffffffffffffffffffffff1673ffffffffffffffffffffffffffffffffffffffff16815260200190815260200160002060008473ffffffffffffffffffffffffffffffffffffffff1673ffffffffffffffffffffffffffffffffffffffff16815260200190815260200160002060006101000a81548160ff0219169083151502179055508173ffffffffffffffffffffffffffffffffffffffff163373ffffffffffffffffffffffffffffffffffffffff167f17307eab39ab6107e8899845ad3d59bd9653f200f220920489ca2b5937696c3183604051808215151515815260200191505060405180910390a35050565b6000612d7c82600c613a4e90919063ffffffff16565b9050919050565b612d8e848484611c7c565b612d9a84848484613e02565b612def576040517f08c379a0000000000000000000000000000000000000000000000000000000008152600401808060200182810382526032815260200180614c946032913960400191505060405180910390fd5b50505050565b60168181548110612e0257fe5b9060005260206000209060040201600091509050806000018054600181600116156101000203166002900480601f016020809104026020016040519081016040528092919081815260200182805460018160011615610100020316600290048015612eae5780601f10612e8357610100808354040283529160200191612eae565b820191906000526020600020905b815481529060010190602001808311612e9157829003601f168201915b5050505050908060030160009054906101000a900460ff16908060030160019054906101000a900460ff16908060030160029054906101000a900460ff16908060030160039054906101000a900460ff16908060030160049054906101000a900473ffffffffffffffffffffffffffffffffffffffff16905086565b612f3e33600e613a4e90919063ffffffff16565b80612f595750612f5833600f613a4e90919063ffffffff16565b5b612fae576040517f08c379a0000000000000000000000000000000000000000000000000000000008152600401808060200182810382526039815260200180614c306039913960400191505060405180910390fd5b6000601580549050905060156040518061018001604052808381526020018e81526020018d81526020018c6026811115612fe457fe5b81526020018b6026811115612ff557fe5b81526020018a607481111561300657fe5b815260200189600381111561301757fe5b81526020018881526020018781526020018573ffffffffffffffffffffffffffffffffffffffff16815260200186600281111561305057fe5b815260200184600281111561306157fe5b815250908060018154018082558091505090600182039060005260206000209060070201600090919290919091506000820151816000015560208201518160010190805190602001906130b5929190614b5e565b5060408201518160020190805190602001906130d2929190614b5e565b5060608201518160030160006101000a81548160ff021916908360268111156130f757fe5b021790555060808201518160030160016101000a81548160ff0219169083602681111561312057fe5b021790555060a08201518160030160026101000a81548160ff0219169083607481111561314957fe5b021790555060c08201518160030160036101000a81548160ff0219169083600381111561317257fe5b021790555060e0820151816004015561010082015181600501556101208201518160060160006101000a81548173ffffffffffffffffffffffffffffffffffffffff021916908373ffffffffffffffffffffffffffffffffffffffff1602179055506101408201518160060160146101000a81548160ff021916908360028111156131f957fe5b02179055506101608201518160060160156101000a81548160ff0219169083600281111561322357fe5b02179055505050506132358382613d1f565b8273ffffffffffffffffffffffffffffffffffffffff1685827f18e8405f726e05f3ee28331c029db4757962a38c2472a8b532a1a366073369cb8f8f8f8f8f8f8f8e8d6040518080602001806020018a602681111561329057fe5b60ff1681526020018960268111156132a457fe5b60ff1681526020018860748111156132b857fe5b60ff1681526020018760038111156132cc57fe5b60ff1681526020018681526020018560028111156132e657fe5b60ff1681526020018460028111156132fa57fe5b60ff16815260200183810383528c818151815260200191508051906020019080838360005b8381101561333a57808201518184015260208101905061331f565b50505050905090810190601f1680156133675780820380516001836020036101000a031916815260200191505b5083810382528b818151815260200191508051906020019080838360005b838110156133a0578082015181840152602081019050613385565b50505050905090810190601f1680156133cd5780820380516001836020036101000a031916815260200191505b509b50505050505050505050505060405180910390a4505050505050505050505050565b60606133fc826139dc565b613451576040517f08c379a000000000000000000000000000000000000000000000000000000000815260040180806020018281038252602f815260200180614e8f602f913960400191505060405180910390fd5b600b60008381526020019081526020016000208054600181600116156101000203166002900480601f0160208091040260200160405190810160405280929190818152602001828054600181600116156101000203166002900480156134f85780601f106134cd576101008083540402835291602001916134f8565b820191906000526020600020905b8154815290600101906020018083116134db57829003601f168201915b50505050509050919050565b61351833600e613a4e90919063ffffffff16565b61358a576040517f08c379a00000000000000000000000000000000000000000000000000000000081526004018080602001828103825260208152602001807f444f45535f4e4f545f484156455f41444d494e4953545241544f525f524f4c4581525060200191505060405180910390fd5b60008090505b81518110156135cb576135c08282815181106135a857fe5b6020026020010151600f613b2c90919063ffffffff16565b806001019050613590565b5050565b6135e333600e613a4e90919063ffffffff16565b613655576040517f08c379a00000000000000000000000000000000000000000000000000000000081526004018080602001828103825260208152602001807f444f45535f4e4f545f484156455f41444d494e4953545241544f525f524f4c4581525060200191505060405180910390fd5b60008090505b81518110156136965761368b82828151811061367357fe5b60200260200101516014613b2c90919063ffffffff16565b80600101905061365b565b5050565b601881815481106136a757fe5b9060005260206000209060030201600091509050806000015490806001018054600181600116156101000203166002900480601f0160208091040260200160405190810160405280929190818152602001828054600181600116156101000203166002900480156137595780601f1061372e57610100808354040283529160200191613759565b820191906000526020600020905b81548152906001019060200180831161373c57829003601f168201915b505050505090806002018054600181600116156101000203166002900480601f0160208091040260200160405190810160405280929190818152602001828054600181600116156101000203166002900480156137f75780601f106137cc576101008083540402835291602001916137f7565b820191906000526020600020905b8154815290600101906020018083116137da57829003601f168201915b5050505050905083565b6000600460008473ffffffffffffffffffffffffffffffffffffffff1673ffffffffffffffffffffffffffffffffffffffff16815260200190815260200160002060008373ffffffffffffffffffffffffffffffffffffffff1673ffffffffffffffffffffffffffffffffffffffff16815260200190815260200160002060009054906101000a900460ff16905092915050565b61389d6124d7565b61390f576040517f08c379a00000000000000000000000000000000000000000000000000000000081526004018080602001828103825260208152602001807f4f776e61626c653a2063616c6c6572206973206e6f7420746865206f776e657281525060200191505060405180910390fd5b61391881613feb565b50565b6139236124d7565b613995576040517f08c379a00000000000000000000000000000000000000000000000000000000081526004018080602001828103825260208152602001807f4f776e61626c653a2063616c6c6572206973206e6f7420746865206f776e657281525060200191505060405180910390fd5b60008090505b81518110156139d8576139cb8282815181106139b357fe5b6020026020010151600e613b2c90919063ffffffff16565b808060010191505061399b565b5050565b6000806001600084815260200190815260200160002060009054906101000a900473ffffffffffffffffffffffffffffffffffffffff169050600073ffffffffffffffffffffffffffffffffffffffff168173ffffffffffffffffffffffffffffffffffffffff161415915050919050565b60008073ffffffffffffffffffffffffffffffffffffffff168273ffffffffffffffffffffffffffffffffffffffff161415613ad5576040517f08c379a0000000000000000000000000000000000000000000000000000000008152600401808060200182810382526022815260200180614e446022913960400191505060405180910390fd5b8260000160008373ffffffffffffffffffffffffffffffffffffffff1673ffffffffffffffffffffffffffffffffffffffff16815260200190815260200160002060009054906101000a900460ff16905092915050565b613b368282613a4e565b15613ba9576040517f08c379a000000000000000000000000000000000000000000000000000000000815260040180806020018281038252601f8152602001807f526f6c65733a206163636f756e7420616c72656164792068617320726f6c650081525060200191505060405180910390fd5b60018260000160008373ffffffffffffffffffffffffffffffffffffffff1673ffffffffffffffffffffffffffffffffffffffff16815260200190815260200160002060006101000a81548160ff0219169083151502179055505050565b6000613c12826139dc565b613c67576040517f08c379a000000000000000000000000000000000000000000000000000000000815260040180806020018281038252602c815260200180614d10602c913960400191505060405180910390fd5b6000613c7283611ebe565b90508073ffffffffffffffffffffffffffffffffffffffff168473ffffffffffffffffffffffffffffffffffffffff161480613ce157508373ffffffffffffffffffffffffffffffffffffffff16613cc984611930565b73ffffffffffffffffffffffffffffffffffffffff16145b80613cf25750613cf18185613801565b5b91505092915050565b613d06838383614131565b613d10838261438c565b613d1a828261452a565b505050565b613d2982826145f1565b613d33828261452a565b613d3c81614809565b5050565b600081600001549050919050565b613d6281600c613b2c90919063ffffffff16565b8073ffffffffffffffffffffffffffffffffffffffff167f6ae172837ea30b801fbfcdd4108aa1d5bf8ff775444fd70256b44e6bf3dfc3f660405160405180910390a250565b613dbc81600c61485590919063ffffffff16565b8073ffffffffffffffffffffffffffffffffffffffff167fe94479a9f7e1952cc78f2d6baab678adc1b772d936c6583def489e524cb6669260405160405180910390a250565b6000613e238473ffffffffffffffffffffffffffffffffffffffff16614912565b613e305760019050613fe3565b60008473ffffffffffffffffffffffffffffffffffffffff1663150b7a02338887876040518563ffffffff1660e01b8152600401808573ffffffffffffffffffffffffffffffffffffffff1673ffffffffffffffffffffffffffffffffffffffff1681526020018473ffffffffffffffffffffffffffffffffffffffff1673ffffffffffffffffffffffffffffffffffffffff16815260200183815260200180602001828103825283818151815260200191508051906020019080838360005b83811015613f0b578082015181840152602081019050613ef0565b50505050905090810190601f168015613f385780820380516001836020036101000a031916815260200191505b5095505050505050602060405180830381600087803b158015613f5a57600080fd5b505af1158015613f6e573d6000803e3d6000fd5b505050506040513d6020811015613f8457600080fd5b8101908080519060200190929190505050905063150b7a0260e01b7bffffffffffffffffffffffffffffffffffffffffffffffffffffffff1916817bffffffffffffffffffffffffffffffffffffffffffffffffffffffff1916149150505b949350505050565b600073ffffffffffffffffffffffffffffffffffffffff168173ffffffffffffffffffffffffffffffffffffffff161415614071576040517f08c379a0000000000000000000000000000000000000000000000000000000008152600401808060200182810382526026815260200180614cc66026913960400191505060405180910390fd5b8073ffffffffffffffffffffffffffffffffffffffff16600d60009054906101000a900473ffffffffffffffffffffffffffffffffffffffff1673ffffffffffffffffffffffffffffffffffffffff167f8be0079c531659141344cd1fd0a4f28419497f9722a3daafe3b4186f6b6457e060405160405180910390a380600d60006101000a81548173ffffffffffffffffffffffffffffffffffffffff021916908373ffffffffffffffffffffffffffffffffffffffff16021790555050565b8273ffffffffffffffffffffffffffffffffffffffff1661415182611ebe565b73ffffffffffffffffffffffffffffffffffffffff16146141bd576040517f08c379a0000000000000000000000000000000000000000000000000000000008152600401808060200182810382526029815260200180614e666029913960400191505060405180910390fd5b600073ffffffffffffffffffffffffffffffffffffffff168273ffffffffffffffffffffffffffffffffffffffff161415614243576040517f08c379a0000000000000000000000000000000000000000000000000000000008152600401808060200182810382526024815260200180614cec6024913960400191505060405180910390fd5b61424c81614925565b614293600360008573ffffffffffffffffffffffffffffffffffffffff1673ffffffffffffffffffffffffffffffffffffffff1681526020019081526020016000206149e3565b6142da600360008473ffffffffffffffffffffffffffffffffffffffff1673ffffffffffffffffffffffffffffffffffffffff168152602001908152602001600020614a06565b816001600083815260200190815260200160002060006101000a81548173ffffffffffffffffffffffffffffffffffffffff021916908373ffffffffffffffffffffffffffffffffffffffff160217905550808273ffffffffffffffffffffffffffffffffffffffff168473ffffffffffffffffffffffffffffffffffffffff167fddf252ad1be2c89b69c2b068fc378daa952ba7f163c4a11628f55a4df523b3ef60405160405180910390a4505050565b60006143e46001600560008673ffffffffffffffffffffffffffffffffffffffff1673ffffffffffffffffffffffffffffffffffffffff16815260200190815260200160002080549050614a1c90919063ffffffff16565b90506000600660008481526020019081526020016000205490508181146144d1576000600560008673ffffffffffffffffffffffffffffffffffffffff1673ffffffffffffffffffffffffffffffffffffffff168152602001908152602001600020838154811061445157fe5b9060005260206000200154905080600560008773ffffffffffffffffffffffffffffffffffffffff1673ffffffffffffffffffffffffffffffffffffffff16815260200190815260200160002083815481106144a957fe5b9060005260206000200181905550816006600083815260200190815260200160002081905550505b600560008573ffffffffffffffffffffffffffffffffffffffff1673ffffffffffffffffffffffffffffffffffffffff1681526020019081526020016000208054809190600190036145239190614bde565b5050505050565b600560008373ffffffffffffffffffffffffffffffffffffffff1673ffffffffffffffffffffffffffffffffffffffff168152602001908152602001600020805490506006600083815260200190815260200160002081905550600560008373ffffffffffffffffffffffffffffffffffffffff1673ffffffffffffffffffffffffffffffffffffffff1681526020019081526020016000208190806001815401808255809150509060018203906000526020600020016000909192909190915055505050565b600073ffffffffffffffffffffffffffffffffffffffff168273ffffffffffffffffffffffffffffffffffffffff161415614694576040517f08c379a00000000000000000000000000000000000000000000000000000000081526004018080602001828103825260208152602001807f4552433732313a206d696e7420746f20746865207a65726f206164647265737381525060200191505060405180910390fd5b61469d816139dc565b15614710576040517f08c379a000000000000000000000000000000000000000000000000000000000815260040180806020018281038252601c8152602001807f4552433732313a20746f6b656e20616c7265616479206d696e7465640000000081525060200191505060405180910390fd5b816001600083815260200190815260200160002060006101000a81548173ffffffffffffffffffffffffffffffffffffffff021916908373ffffffffffffffffffffffffffffffffffffffff1602179055506147a9600360008473ffffffffffffffffffffffffffffffffffffffff1673ffffffffffffffffffffffffffffffffffffffff168152602001908152602001600020614a06565b808273ffffffffffffffffffffffffffffffffffffffff16600073ffffffffffffffffffffffffffffffffffffffff167fddf252ad1be2c89b69c2b068fc378daa952ba7f163c4a11628f55a4df523b3ef60405160405180910390a45050565b6007805490506008600083815260200190815260200160002081905550600781908060018154018082558091505090600182039060005260206000200160009091929091909150555050565b61485f8282613a4e565b6148b4576040517f08c379a0000000000000000000000000000000000000000000000000000000008152600401808060200182810382526021815260200180614df76021913960400191505060405180910390fd5b60008260000160008373ffffffffffffffffffffffffffffffffffffffff1673ffffffffffffffffffffffffffffffffffffffff16815260200190815260200160002060006101000a81548160ff0219169083151502179055505050565b600080823b905060008111915050919050565b600073ffffffffffffffffffffffffffffffffffffffff166002600083815260200190815260200160002060009054906101000a900473ffffffffffffffffffffffffffffffffffffffff1673ffffffffffffffffffffffffffffffffffffffff16146149e05760006002600083815260200190815260200160002060006101000a81548173ffffffffffffffffffffffffffffffffffffffff021916908373ffffffffffffffffffffffffffffffffffffffff1602179055505b50565b6149fb60018260000154614a1c90919063ffffffff16565b816000018190555050565b6001816000016000828254019250508190555050565b600082821115614a94576040517f08c379a000000000000000000000000000000000000000000000000000000000815260040180806020018281038252601e8152602001807f536166654d6174683a207375627472616374696f6e206f766572666c6f77000081525060200191505060405180910390fd5b600082840390508091505092915050565b60405180610180016040528060008152602001606081526020016060815260200160006026811115614ad357fe5b815260200160006026811115614ae557fe5b815260200160006074811115614af757fe5b815260200160006003811115614b0957fe5b81526020016000815260200160008152602001600073ffffffffffffffffffffffffffffffffffffffff16815260200160006002811115614b4657fe5b815260200160006002811115614b5857fe5b81525090565b828054600181600116156101000203166002900490600052602060002090601f016020900481019282601f10614b9f57805160ff1916838001178555614bcd565b82800160010185558215614bcd579182015b82811115614bcc578251825591602001919060010190614bb1565b5b509050614bda9190614c0a565b5090565b815481835581811115614c0557818360005260206000209182019101614c049190614c0a565b5b505050565b614c2c91905b80821115614c28576000816000905550600101614c10565b5090565b9056fe444f45535f4e4f545f484156455f41444d494e4953545241544f525f4f525f45535441424c4953484d454e545f4d414e414745525f524f4c45455243373231456e756d657261626c653a206f776e657220696e646578206f7574206f6620626f756e64734552433732313a207472616e7366657220746f206e6f6e20455243373231526563656976657220696d706c656d656e7465724f776e61626c653a206e6577206f776e657220697320746865207a65726f20616464726573734552433732313a207472616e7366657220746f20746865207a65726f20616464726573734552433732313a206f70657261746f7220717565727920666f72206e6f6e6578697374656e7420746f6b656e4552433732313a20617070726f76652063616c6c6572206973206e6f74206f776e6572206e6f7220617070726f76656420666f7220616c6c4552433732313a2062616c616e636520717565727920666f7220746865207a65726f20616464726573734552433732313a206f776e657220717565727920666f72206e6f6e6578697374656e7420746f6b656e4d696e746572526f6c653a2063616c6c657220646f6573206e6f74206861766520746865204d696e74657220726f6c65526f6c65733a206163636f756e7420646f6573206e6f74206861766520726f6c654552433732313a20617070726f76656420717565727920666f72206e6f6e6578697374656e7420746f6b656e526f6c65733a206163636f756e7420697320746865207a65726f20616464726573734552433732313a207472616e73666572206f6620746f6b656e2074686174206973206e6f74206f776e4552433732314d657461646174613a2055524920717565727920666f72206e6f6e6578697374656e7420746f6b656e4552433732313a20617070726f76616c20746f2063757272656e74206f776e65724552433732313a207472616e736665722063616c6c6572206973206e6f74206f776e6572206e6f7220617070726f766564455243373231456e756d657261626c653a20676c6f62616c20696e646578206f7574206f6620626f756e6473444f45535f4e4f545f484156455f41444d494e4953545241544f525f4f525f5245435255495445525f524f4c45a165627a7a7230582002f784a8bda673862302518e53de5f242cbe64a11b1ea7f00ad67e69ea5303190029526f6c65733a206163636f756e7420697320746865207a65726f2061646472657373",
  "source": "pragma solidity ^0.5.0;\r\n\r\nimport \"@openzeppelin/contracts/token/ERC721/ERC721Full.sol\";\r\nimport \"@openzeppelin/contracts/token/ERC721/ERC721Mintable.sol\";\r\nimport \"@openzeppelin/contracts/access/Roles.sol\";\r\nimport \"@openzeppelin/contracts/math/SafeMath.sol\";\r\nimport \"@openzeppelin/contracts/ownership/Ownable.sol\";\r\n\r\ncontract Demand is ERC721Full, ERC721Mintable, Ownable {\r\n\r\n    using Roles for Roles.Role;\r\n    using SafeMath for uint256;\r\n\r\n    Roles.Role private _administrator;\r\n    Roles.Role private _establishmentManager;\r\n    Roles.Role private _careerManager;\r\n    Roles.Role private _unitPositionManager;\r\n    Roles.Role private _recruiter;\r\n    Roles.Role private _soldier;\r\n    Roles.Role private _trainingEstablishment;\r\n\r\n    enum Rank { PteB, AvrB, OS, PteT, AvrT, AB, Cpl, LS, MCpl, MS,\r\n                Sgt, PO2, WO, PO1, MWO, CPO2, CWO, CPO1, OCdt, NCdt,\r\n                ASlt, SecLt, Lt, SLt, Capt, LtN, Maj, LCdr, LCol, Cdr,\r\n                Col, CaptN, BGen, Cmdre, MGen, RAdm, LGen, Gen, Adm }\r\n\r\n    enum Trade { ACOPAEROOP, ACCISS, ACSTECH, ACSO, AEC, AERE, AESOP,\r\n                AMSUP, AMMOTECH, ARMD, ARTY, ARTYMNAD, ARTYMNFD, ATISTECH,\r\n                AVPHYSTECH, AVNTECH, AVSTECH, AWSTECH, BETECH, BIO, BOSN,\r\n                CBRNOP, CBTENGR, CESUPT, CELEAIR, CHAP, CIC, CLDVR, COMMRSCH,\r\n                CONSTENGR, CONSTTECH, COOK, CR, CRMN, CRTRPTR, CYBEROP, DENT,\r\n                DENTTECH, DSTECH, ETECH, EDTECH, EGSTECH, EME, ENGR, EOTECHL,\r\n                FIREFTR, FLTENGR, FSA, GEOTECH, GNR, GOL, GOSCHAPP, HTECH, HCA,\r\n                HRA, HSO, IMAGETECH, INF, INFMN, INT, INTOP, LCISTECH, LEGAL,\r\n                LMN, LOG, MAREL, MARENG, MARENGART, MARTECH, MARSSS, MATTECH, MED,\r\n                MEDTECH, MESO, METTECH, MLABTECH, MP, MPO, MRADTECH, MSENG, MSEOP,\r\n                MUSC, MUSCN, NAVCOMM, NAVENG, NCIOP, NCSENG, NDTTECH, NESOP, NUR, ORTECH,\r\n                PAO, PANDD, PHTECH, PHARM, PHYSIO, PID, PLT, PMEDTECH, POSTCLK,\r\n                PSEL, RMTECH, RMSCLK, SARTECH, SFOP, SIGOP, SIGS, SOCW, SONAROP,\r\n                STWD, SUPTECH, TFCTECH, TRGDEV, VEHTECH, WENGTECH, WTECHL, WFETECH }\r\n\r\n    enum Status { active, inactive, obsolete }\r\n    enum Component { RegF, ResF, Civ }\r\n    enum Environment { CA, RCN, RCAF, CANSOFCOM }\r\n\r\n    struct Position {\r\n        uint256 positionId;\r\n        string positionNumber;\r\n        string positionName;\r\n        Rank lowRank;\r\n        Rank highRank;\r\n        Trade trade;\r\n        Environment environment;\r\n        uint256 taskList;\r\n        uint256 currentSoldier;\r\n        address owningOrganization;\r\n        Status status;\r\n        Component component;\r\n    }\r\n\r\n    struct Soldier {\r\n        string serviceNumber;\r\n        string[] currentQualifications;\r\n        string[] desiredQualifications;\r\n        Rank rank;\r\n        Trade trade;\r\n        Environment environment;\r\n        Component component;\r\n        address soldierAddress;\r\n    }\r\n\r\n    struct Task {\r\n        uint256 taskId;\r\n    }\r\n\r\n    struct Qualification {\r\n        uint256 qualificationId;\r\n        string competencyCode;\r\n        string qualificationTitle;\r\n    }\r\n\r\n    struct Organization {\r\n        uint256 organizationId;\r\n        string organizationName;\r\n        address organizationAddress;\r\n    }\r\n\r\n    Position[] public positions;\r\n    Soldier[] public soldiers;\r\n    Task[] public tasks;\r\n    Qualification[] public qualifications;\r\n\r\n    // Events\r\n    event PositionCreated(\r\n        uint256 indexed positionId,\r\n        string positionNumber,\r\n        string positionName,\r\n        Rank lowRank,\r\n        Rank highRank,\r\n        Trade trade,\r\n        Environment environment,\r\n        uint256 taskList,\r\n        uint256 indexed currentSoldier,\r\n        address indexed owningOrganization,\r\n        Status status,\r\n        Component component\r\n    );\r\n\r\n    constructor(string memory _identifier, string memory _symbol) ERC721Full(_identifier, _symbol) public onlyOwner {\r\n    }\r\n\r\n    function terminateDemand() public onlyOwner {\r\n        selfdestruct(msg.sender);\r\n    }\r\n\r\n    // Create contract and assign administrator access\r\n    function assignAdministratorRole(address[] memory administrators) public onlyOwner {\r\n        for (uint256 i = 0; i < administrators.length; i++) {\r\n                _administrator.add(administrators[i]);\r\n            }\r\n    }\r\n\r\n    // Role Assignments an Administrator must make\r\n    function assignEstablishmentManagerRole(address[] memory establishmentManagers) public {\r\n        require(_administrator.has(msg.sender), \"DOES_NOT_HAVE_ADMINISTRATOR_ROLE\");\r\n        for (uint256 i = 0; i < establishmentManagers.length; ++i) {\r\n            _establishmentManager.add(establishmentManagers[i]);\r\n        }\r\n    }\r\n\r\n    function assignCareerManagerRole(address[] memory careerManagers) public {\r\n        require(_administrator.has(msg.sender), \"DOES_NOT_HAVE_ADMINISTRATOR_ROLE\");\r\n        for (uint256 i = 0; i < careerManagers.length; ++i) {\r\n            _careerManager.add(careerManagers[i]);\r\n        }\r\n    }\r\n\r\n    function assignRecruiterRole(address[] memory recruiters) public {\r\n        require(_administrator.has(msg.sender), \"DOES_NOT_HAVE_ADMINISTRATOR_ROLE\");\r\n        for (uint256 i = 0; i < recruiters.length; ++i) {\r\n            _recruiter.add(recruiters[i]);\r\n        }\r\n    }\r\n\r\n    function assignTrainingEstablishmentRole(address[] memory trainingEstablishments) public {\r\n        require(_administrator.has(msg.sender), \"DOES_NOT_HAVE_ADMINISTRATOR_ROLE\");\r\n        for (uint256 i = 0; i < trainingEstablishments.length; ++i) {\r\n            _trainingEstablishment.add(trainingEstablishments[i]);\r\n        }\r\n    }\r\n\r\n    // Role Assignments a Recruiter (or Administrator) must make\r\n    function assignSoldierRole(address[] memory soldiersAddress) public {\r\n        require((_administrator.has(msg.sender) ||\r\n                _recruiter.has(msg.sender)),\r\n                \"DOES_NOT_HAVE_ADMINISTRATOR_OR_RECRUITER_ROLE\");\r\n        for (uint256 i = 0; i < soldiersAddress.length; ++i) {\r\n            _soldier.add(soldiersAddress[i]);\r\n        }\r\n    }\r\n\r\n    // Role Assignments an Establishment Manager (or Administrator) must make\r\n    function assignUnitPositionManagerRole(address[] memory unitPositionManagers) public {\r\n        require((_administrator.has(msg.sender) ||\r\n                _establishmentManager.has(msg.sender)),\r\n                \"DOES_NOT_HAVE_ADMINISTRATOR_OR_ESTABLISHMENT_MANAGER_ROLE\");\r\n        for (uint256 i = 0; i < unitPositionManagers.length; ++i) {\r\n            _unitPositionManager.add(unitPositionManagers[i]);\r\n        }\r\n    }\r\n\r\n    // Creation Functions\r\n    function createPosition(string memory _positionNumber,\r\n                            string memory _positionName,\r\n                            Rank _lowRank,\r\n                            Rank _highRank,\r\n                            Trade _trade,\r\n                            Environment _environment,\r\n                            uint256 _currentSoldier,\r\n                            uint256 _taskList,\r\n                            Status _status,\r\n                            address _owningOrganization,\r\n                            Component _component\r\n                            ) public {\r\n        require((_administrator.has(msg.sender) ||\r\n            _establishmentManager.has(msg.sender)),\r\n            \"DOES_NOT_HAVE_ADMINISTRATOR_OR_ESTABLISHMENT_MANAGER_ROLE\");\r\n        uint256 positionId = positions.length; // generates unique positionId\r\n        positions.push(Position(\r\n                                positionId,\r\n                                _positionNumber,\r\n                                _positionName,\r\n                                _lowRank,\r\n                                _highRank,\r\n                                _trade,\r\n                                _environment,\r\n                                _currentSoldier,\r\n                                _taskList,\r\n                                _owningOrganization,\r\n                                _status,\r\n                                _component\r\n                                ));\r\n        _mint(_owningOrganization, positionId); // Create a new position\r\n        emit PositionCreated(\r\n                            positionId,\r\n                            _positionNumber,\r\n                            _positionName,\r\n                            _lowRank,\r\n                            _highRank,\r\n                            _trade,\r\n                            _environment,\r\n                            _currentSoldier,\r\n                            _taskList,\r\n                            _owningOrganization,\r\n                            _status,\r\n                            _component\r\n        );\r\n    }\r\n\r\n    function getPositionDetails(uint _positionId)\r\n        public view returns(\r\n            uint256 positionId,\r\n            string memory positionNumber,\r\n            string memory positionName,\r\n            Rank lowRank,\r\n            Rank highRank,\r\n            Trade trade,\r\n            Environment environment,\r\n            uint256 taskList,\r\n            uint256 currentSoldier,\r\n            address owningOrganization,\r\n            Status status,\r\n            Component component\r\n        ) {\r\n        Position memory _positions = positions[_positionId];\r\n        positionId = _positions.positionId;\r\n        positionNumber = _positions.positionNumber;\r\n        positionName = _positions.positionName;\r\n        lowRank = _positions.lowRank;\r\n        highRank = _positions.highRank;\r\n        trade = _positions.trade;\r\n        environment = _positions.environment;\r\n        taskList = _positions.taskList;\r\n        currentSoldier = _positions.currentSoldier;\r\n        owningOrganization = _positions.owningOrganization;\r\n        status = _positions.status;\r\n        component = _positions.component;\r\n    }\r\n}",
  "sourcePath": "C:/Users/aaron/Documents/Projects/training-demand/src/contracts/Demand.sol",
  "compiler": {
    "name": "solc",
    "version": "0.5.8+commit.23d335f2.Emscripten.clang"
  },
  "schemaVersion": "3.0.16",
  "updatedAt": "2019-09-21T12:11:33.447Z",
  "devdoc": {
    "methods": {
      "approve(address,uint256)": {
        "details": "Approves another address to transfer the given token ID The zero address indicates there is no approved address. There can only be one approved address per token at a given time. Can only be called by the token owner or an approved operator.",
        "params": {
          "to": "address to be approved for the given token ID",
          "tokenId": "uint256 ID of the token to be approved"
        }
      },
      "balanceOf(address)": {
        "details": "Gets the balance of the specified address.",
        "params": {
          "owner": "address to query the balance of"
        },
        "return": "uint256 representing the amount owned by the passed address"
      },
      "getApproved(uint256)": {
        "details": "Gets the approved address for a token ID, or zero if no address set Reverts if the token ID does not exist.",
        "params": {
          "tokenId": "uint256 ID of the token to query the approval of"
        },
        "return": "address currently approved for the given token ID"
      },
      "isApprovedForAll(address,address)": {
        "details": "Tells whether an operator is approved by a given owner.",
        "params": {
          "operator": "operator address which you want to query the approval of",
          "owner": "owner address which you want to query the approval of"
        },
        "return": "bool whether the given operator is approved by the given owner"
      },
      "isOwner()": {
        "details": "Returns true if the caller is the current owner."
      },
      "mint(address,uint256)": {
        "details": "Function to mint tokens.",
        "params": {
          "to": "The address that will receive the minted tokens.",
          "tokenId": "The token id to mint."
        },
        "return": "A boolean that indicates if the operation was successful."
      },
      "name()": {
        "details": "Gets the token name.",
        "return": "string representing the token name"
      },
      "owner()": {
        "details": "Returns the address of the current owner."
      },
      "ownerOf(uint256)": {
        "details": "Gets the owner of the specified token ID.",
        "params": {
          "tokenId": "uint256 ID of the token to query the owner of"
        },
        "return": "address currently marked as the owner of the given token ID"
      },
      "renounceOwnership()": {
        "details": "Leaves the contract without owner. It will not be possible to call `onlyOwner` functions anymore. Can only be called by the current owner.     * > Note: Renouncing ownership will leave the contract without an owner, thereby removing any functionality that is only available to the owner."
      },
      "safeTransferFrom(address,address,uint256)": {
        "details": "Safely transfers the ownership of a given token ID to another address If the target address is a contract, it must implement `onERC721Received`, which is called upon a safe transfer, and return the magic value `bytes4(keccak256(\"onERC721Received(address,address,uint256,bytes)\"))`; otherwise, the transfer is reverted. Requires the msg.sender to be the owner, approved, or operator",
        "params": {
          "from": "current owner of the token",
          "to": "address to receive the ownership of the given token ID",
          "tokenId": "uint256 ID of the token to be transferred"
        }
      },
      "safeTransferFrom(address,address,uint256,bytes)": {
        "details": "Safely transfers the ownership of a given token ID to another address If the target address is a contract, it must implement `onERC721Received`, which is called upon a safe transfer, and return the magic value `bytes4(keccak256(\"onERC721Received(address,address,uint256,bytes)\"))`; otherwise, the transfer is reverted. Requires the msg.sender to be the owner, approved, or operator",
        "params": {
          "_data": "bytes data to send along with a safe transfer check",
          "from": "current owner of the token",
          "to": "address to receive the ownership of the given token ID",
          "tokenId": "uint256 ID of the token to be transferred"
        }
      },
      "setApprovalForAll(address,bool)": {
        "details": "Sets or unsets the approval of a given operator An operator is allowed to transfer all tokens of the sender on their behalf.",
        "params": {
          "approved": "representing the status of the approval to be set",
          "to": "operator address to set the approval"
        }
      },
      "supportsInterface(bytes4)": {
        "details": "See `IERC165.supportsInterface`.     * Time complexity O(1), guaranteed to always use less than 30 000 gas."
      },
      "symbol()": {
        "details": "Gets the token symbol.",
        "return": "string representing the token symbol"
      },
      "tokenByIndex(uint256)": {
        "details": "Gets the token ID at a given index of all the tokens in this contract Reverts if the index is greater or equal to the total number of tokens.",
        "params": {
          "index": "uint256 representing the index to be accessed of the tokens list"
        },
        "return": "uint256 token ID at the given index of the tokens list"
      },
      "tokenOfOwnerByIndex(address,uint256)": {
        "details": "Gets the token ID at a given index of the tokens list of the requested owner.",
        "params": {
          "index": "uint256 representing the index to be accessed of the requested tokens list",
          "owner": "address owning the tokens list to be accessed"
        },
        "return": "uint256 token ID at the given index of the tokens list owned by the requested address"
      },
      "tokenURI(uint256)": {
        "details": "Returns an URI for a given token ID. Throws if the token ID does not exist. May return an empty string.",
        "params": {
          "tokenId": "uint256 ID of the token to query"
        }
      },
      "totalSupply()": {
        "details": "Gets the total amount of tokens stored by the contract.",
        "return": "uint256 representing the total amount of tokens"
      },
      "transferFrom(address,address,uint256)": {
        "details": "Transfers the ownership of a given token ID to another address. Usage of this method is discouraged, use `safeTransferFrom` whenever possible. Requires the msg.sender to be the owner, approved, or operator.",
        "params": {
          "from": "current owner of the token",
          "to": "address to receive the ownership of the given token ID",
          "tokenId": "uint256 ID of the token to be transferred"
        }
      },
      "transferOwnership(address)": {
        "details": "Transfers ownership of the contract to a new account (`newOwner`). Can only be called by the current owner."
      }
    }
  },
  "userdoc": {
    "methods": {}
  }
}