{
  "contractName": "Demand",
  "abi": [
    {
      "inputs": [
        {
          "name": "administrators",
          "type": "address[]"
        }
      ],
      "payable": false,
      "stateMutability": "nonpayable",
      "type": "constructor"
    },
    {
      "constant": false,
      "inputs": [
        {
          "name": "establishmentManagers",
          "type": "address[]"
        }
      ],
      "name": "assignEstablishmentManagerRole",
      "outputs": [],
      "payable": false,
      "stateMutability": "nonpayable",
      "type": "function"
    },
    {
      "constant": false,
      "inputs": [
        {
          "name": "careerManagers",
          "type": "address[]"
        }
      ],
      "name": "assignCareerManagerRole",
      "outputs": [],
      "payable": false,
      "stateMutability": "nonpayable",
      "type": "function"
    },
    {
      "constant": false,
      "inputs": [
        {
          "name": "recruiters",
          "type": "address[]"
        }
      ],
      "name": "assignRecruiterRole",
      "outputs": [],
      "payable": false,
      "stateMutability": "nonpayable",
      "type": "function"
    },
    {
      "constant": false,
      "inputs": [
        {
          "name": "trainingEstablishments",
          "type": "address[]"
        }
      ],
      "name": "assignTrainingEstablishmentRole",
      "outputs": [],
      "payable": false,
      "stateMutability": "nonpayable",
      "type": "function"
    }
  ],
  "bytecode": "0x608060405234801561001057600080fd5b50604051610b26380380610b268339810180604052602081101561003357600080fd5b81019080805164010000000081111561004b57600080fd5b8281019050602081018481111561006157600080fd5b815185602082028301116401000000008211171561007e57600080fd5b505092919050505060008090505b81518110156100cb576100c08282815181106100a457fe5b602002602001015160006100d260201b61073b1790919060201c565b80600101905061008c565b5050610291565b6100e282826101b360201b60201c565b15610155576040517f08c379a000000000000000000000000000000000000000000000000000000000815260040180806020018281038252601f8152602001807f526f6c65733a206163636f756e7420616c72656164792068617320726f6c650081525060200191505060405180910390fd5b60018260000160008373ffffffffffffffffffffffffffffffffffffffff1673ffffffffffffffffffffffffffffffffffffffff16815260200190815260200160002060006101000a81548160ff0219169083151502179055505050565b60008073ffffffffffffffffffffffffffffffffffffffff168273ffffffffffffffffffffffffffffffffffffffff16141561023a576040517f08c379a0000000000000000000000000000000000000000000000000000000008152600401808060200182810382526022815260200180610b046022913960400191505060405180910390fd5b8260000160008373ffffffffffffffffffffffffffffffffffffffff1673ffffffffffffffffffffffffffffffffffffffff16815260200190815260200160002060009054906101000a900460ff16905092915050565b610864806102a06000396000f3fe608060405234801561001057600080fd5b506004361061004c5760003560e01c8063149fca611461005157806387ae7fe414610109578063ca7076f8146101c1578063d494446b14610279575b600080fd5b6101076004803603602081101561006757600080fd5b810190808035906020019064010000000081111561008457600080fd5b82018360208201111561009657600080fd5b803590602001918460208302840111640100000000831117156100b857600080fd5b919080806020026020016040519081016040528093929190818152602001838360200280828437600081840152601f19601f820116905080830192505050505050509192919290505050610331565b005b6101bf6004803603602081101561011f57600080fd5b810190808035906020019064010000000081111561013c57600080fd5b82018360208201111561014e57600080fd5b8035906020019184602083028401116401000000008311171561017057600080fd5b919080806020026020016040519081016040528093929190818152602001838360200280828437600081840152601f19601f8201169050808301925050505050505091929192905050506103fc565b005b610277600480360360208110156101d757600080fd5b81019080803590602001906401000000008111156101f457600080fd5b82018360208201111561020657600080fd5b8035906020019184602083028401116401000000008311171561022857600080fd5b919080806020026020016040519081016040528093929190818152602001838360200280828437600081840152601f19601f8201169050808301925050505050505091929192905050506104c7565b005b61032f6004803603602081101561028f57600080fd5b81019080803590602001906401000000008111156102ac57600080fd5b8201836020820111156102be57600080fd5b803590602001918460208302840111640100000000831117156102e057600080fd5b919080806020026020016040519081016040528093929190818152602001838360200280828437600081840152601f19601f820116905080830192505050505050509192919290505050610592565b005b61034533600061065d90919063ffffffff16565b6103b7576040517f08c379a00000000000000000000000000000000000000000000000000000000081526004018080602001828103825260208152602001807f444f45535f4e4f545f484156455f41444d494e4953545241544f525f524f4c4581525060200191505060405180910390fd5b60008090505b81518110156103f8576103ed8282815181106103d557fe5b6020026020010151600261073b90919063ffffffff16565b8060010190506103bd565b5050565b61041033600061065d90919063ffffffff16565b610482576040517f08c379a00000000000000000000000000000000000000000000000000000000081526004018080602001828103825260208152602001807f444f45535f4e4f545f484156455f41444d494e4953545241544f525f524f4c4581525060200191505060405180910390fd5b60008090505b81518110156104c3576104b88282815181106104a057fe5b6020026020010151600461073b90919063ffffffff16565b806001019050610488565b5050565b6104db33600061065d90919063ffffffff16565b61054d576040517f08c379a00000000000000000000000000000000000000000000000000000000081526004018080602001828103825260208152602001807f444f45535f4e4f545f484156455f41444d494e4953545241544f525f524f4c4581525060200191505060405180910390fd5b60008090505b815181101561058e5761058382828151811061056b57fe5b6020026020010151600161073b90919063ffffffff16565b806001019050610553565b5050565b6105a633600061065d90919063ffffffff16565b610618576040517f08c379a00000000000000000000000000000000000000000000000000000000081526004018080602001828103825260208152602001807f444f45535f4e4f545f484156455f41444d494e4953545241544f525f524f4c4581525060200191505060405180910390fd5b60008090505b81518110156106595761064e82828151811061063657fe5b6020026020010151600661073b90919063ffffffff16565b80600101905061061e565b5050565b60008073ffffffffffffffffffffffffffffffffffffffff168273ffffffffffffffffffffffffffffffffffffffff1614156106e4576040517f08c379a00000000000000000000000000000000000000000000000000000000081526004018080602001828103825260228152602001806108176022913960400191505060405180910390fd5b8260000160008373ffffffffffffffffffffffffffffffffffffffff1673ffffffffffffffffffffffffffffffffffffffff16815260200190815260200160002060009054906101000a900460ff16905092915050565b610745828261065d565b156107b8576040517f08c379a000000000000000000000000000000000000000000000000000000000815260040180806020018281038252601f8152602001807f526f6c65733a206163636f756e7420616c72656164792068617320726f6c650081525060200191505060405180910390fd5b60018260000160008373ffffffffffffffffffffffffffffffffffffffff1673ffffffffffffffffffffffffffffffffffffffff16815260200190815260200160002060006101000a81548160ff021916908315150217905550505056fe526f6c65733a206163636f756e7420697320746865207a65726f2061646472657373a165627a7a72305820fa06ffb03f82e096dbc702f786d7ece8be886d7786493fad16d8e7cb088a0b6f0029526f6c65733a206163636f756e7420697320746865207a65726f2061646472657373",
  "source": "pragma solidity ^0.5.0;\r\n\r\nimport \"@openzeppelin/contracts/access/Roles.sol\";\r\nimport \"@openzeppelin/contracts/math/SafeMath.sol\";\r\n\r\ncontract Demand {\r\n\r\n    using Roles for Roles.Role;\r\n    using SafeMath for uint256;\r\n\r\n    Roles.Role private _administrator;\r\n    Roles.Role private _establishmentManager;\r\n    Roles.Role private _careerManager;\r\n    Roles.Role private _unitPositionManager;\r\n    Roles.Role private _recruiter;\r\n    Roles.Role private _soldier;\r\n    Roles.Role private _trainingEstablishment;\r\n\r\n    // Create contract and assign administrator access\r\n    constructor(address[] memory administrators) public {\r\n        for (uint256 i = 0; i < administrators.length; ++i) {\r\n            _administrator.add(administrators[i]);\r\n        }\r\n    }\r\n\r\n    // Role Assignments an Administrator must make\r\n    function assignEstablishmentManagerRole(address[] memory establishmentManagers) public {\r\n        require(_administrator.has(msg.sender), \"DOES_NOT_HAVE_ADMINISTRATOR_ROLE\");\r\n        for (uint256 i = 0; i < establishmentManagers.length; ++i) {\r\n            _establishmentManager.add(establishmentManagers[i]);\r\n        }\r\n    }\r\n\r\n    function assignCareerManagerRole(address[] memory careerManagers) public {\r\n        require(_administrator.has(msg.sender), \"DOES_NOT_HAVE_ADMINISTRATOR_ROLE\");\r\n        for (uint256 i = 0; i < careerManagers.length; ++i) {\r\n            _careerManager.add(careerManagers[i]);\r\n        }\r\n    }\r\n\r\n    function assignRecruiterRole(address[] memory recruiters) public {\r\n        require(_administrator.has(msg.sender), \"DOES_NOT_HAVE_ADMINISTRATOR_ROLE\");\r\n        for (uint256 i = 0; i < recruiters.length; ++i) {\r\n            _recruiter.add(recruiters[i]);\r\n        }\r\n    }\r\n\r\n    function assignTrainingEstablishmentRole(address[] memory trainingEstablishments) public {\r\n        require(_administrator.has(msg.sender), \"DOES_NOT_HAVE_ADMINISTRATOR_ROLE\");\r\n        for (uint256 i = 0; i < trainingEstablishments.length; ++i) {\r\n            _trainingEstablishment.add(trainingEstablishments[i]);\r\n        }\r\n    }\r\n\r\n\r\n\r\n}",
  "sourcePath": "C:/Users/aaron/Documents/Projects/training-demand/src/contracts/Demand.sol",
  "compiler": {
    "name": "solc",
    "version": "0.5.8+commit.23d335f2.Emscripten.clang"
  },
  "schemaVersion": "3.0.11",
  "updatedAt": "2019-09-19T23:43:24.838Z",
  "devdoc": {
    "methods": {}
  },
  "userdoc": {
    "methods": {}
  }
}